:020000040800F2
:10000000E808002029020008A5040008C70300082A
:10001000A1040008E3020008A30B00080000000090
:100020000000000000000000000000006106000861
:10003000E702000800000000350500087907000805
:10004000430200084302000843020008430200087C
:10005000430200084302000843020008430200086C
:10006000430200084302000843020008430200085C
:10007000430200084302000843020008430200084C
:10008000430200084302000843020008430200083C
:10009000430200084302000843020008430200082C
:1000A000430200084302000843020008430200081C
:1000B000430200084302000843020008430200080C
:1000C00043020008430200084302000843020008FC
:1000D00043020008E5070008430200084302000845
:1000E00043020008430200084302000843020008DC
:1000F00043020008430200084302000843020008CC
:1001000043020008430200084302000843020008BB
:1001100043020008430200084302000843020008AB
:10012000430200084302000843020008430200089B
:10013000430200084302000843020008430200088B
:10014000430200084302000843020008430200087B
:10015000430200084302000843020008430200086B
:10016000430200084302000843020008430200085B
:100170004302000843020008430200080000000098
:10018000430200084302000800F002F800F03CF8C7
:100190000AA090E8000C82448344AAF10107DA45E2
:1001A00001D100F031F8AFF2090EBAE80F0013F0F8
:1001B000010F18BFFB1A43F0010318477C0B000026
:1001C0009C0B0000103A24BF78C878C1FAD85207B7
:1001D00024BF30C830C144BF04680C6070470000C1
:1001E0000023002400250026103A28BF78C1FBD840
:1001F000520728BF30C148BF0B6070471FB500F0E1
:1002000095FD1FBD10B510BD00F031F81146FFF788
:10021000F5FF00F0E7FC00F04FF803B4FFF7F2FF42
:1002200003BC00F057F80000094880470948004720
:10023000FEE7FEE7FEE7FEE7FEE7FEE7FEE7FEE796
:10024000FEE7FEE704480549054A064B70470000F3
:100250007D07000889010008E8020020E808002066
:10026000E8040020E8040020704770477047754696
:1002700000F02CF8AE4605006946534620F0070012
:10028000854618B020B5FFF7DDFFBDE820404FF0F0
:1002900000064FF000074FF000084FF0000B21F070
:1002A0000701AC46ACE8C009ACE8C009ACE8C0093D
:1002B000ACE8C0098D46704710B50446AFF3008026
:1002C0002046BDE81040FFF7A8BF00000048704777
:1002D0008802002001491820ABBEFEE7260002007C
:1002E000704700BFFEE77047F0B50A4600210023C3
:1002F000002400BF3DE0012505FA01F3156805EA79
:1003000003049C4234D105684F000326BE40B54328
:10031000056015794E00B5400668354305601579CE
:10032000012D02D01579022D16D185684F000326C4
:10033000BE40B543856055794E00B540866835436B
:100340008560456801268E40B543456045689679CD
:100350008E40B6B235434560C5684F000326BE40A7
:10036000B543C560D5794E00B540C6683543C56014
:10037000491C1029BFD3F0BDF0B5002300244D0760
:10038000ED0E02FA05F3CE1000F1200555F82650C7
:100390004E07F70E0F26BE40B543CF1000F12006E2
:1003A00046F82750CE1000F1200555F8265045EAB2
:1003B0000304CE1000F1200545F82640F0BD41832E
:1003C00070470183704700BFFEE700000020084926
:1003D0000860084908600849086008490860042066
:1003E00007490870002007490870074908707047DE
:1003F000100000200C000020140000201800002035
:100400001C0000201D00002008000020002003E048
:100410000021034A1154401CB0F5167FF8D37047F1
:10042000300000201CB50121202000F085F80121BA
:10043000022000F081F84FF4C060009001208DF898
:10044000040000208DF8060003208DF8050001202F
:100450008DF8070069461048FFF746FF4FF4C0616A
:100460000D48FFF7AEFF4FF48060009001208DF83B
:10047000040000208DF8060003208DF805000220FE
:100480008DF8070069460548FFF72EFF4FF480619D
:100490000248FFF794FF1CBD001402400004024014
:1004A00000BFFEE77047000070B5002100230F2257
:1004B000C4781CB3174C246804F4E064C4F5E06409
:1004C000C4F30721C1F10404E3B20A4144789C401B
:1004D000E1B28478144021430C07210E0E4C0578BC
:1004E0006155047804F01F050124AC4005786D11B6
:1004F000AD0005F1E025C5F8004109E0047804F0FD
:100500001F050124AC40054D0678761145F82640BC
:1005100070BD00000CED00E000E400E080E100E0D0
:1005200002490143024A1160704700000000FA05C9
:100530000CED00E07047000029B1064A1268024342
:10054000044B1A6004E0034A12688243014B1A60AC
:10055000704700003038024029B1064A1268024351
:10056000044B1A6004E0034A12688243014B1A608C
:100570007047000044380240F0B5002100220024FA
:10058000022500260223324F3F6807F00C0121B1FB
:10059000042905D0082937D105E02E4F076036E041
:1005A0002D4F076033E02A4F3F1F3F68C7F3805647
:1005B000274F3F1F3F6807F03F036EB1264FB7FB41
:1005C000F3F7DFF88CC0ACF1040CDCF800C0CCF31E
:1005D000881C07FB0CF40CE01E4FB7FBF3F7DFF8A9
:1005E00070C0ACF1040CDCF800C0CCF3881C07FB35
:1005F0000CF4174F3F1F3F68C7F301477F1C7D0076
:10060000B4FBF5F7076002E0124F076000BF00BFC0
:100610000F4F3F6807F0F0010909104F7A5C076837
:10062000D74047600A4F3F6807F4E051890A0B4FF3
:100630007A5C4768D7408760054F3F6807F46041A0
:10064000490B064F7A5C4768D740C760F0BD000091
:10065000083802400024F40000127A001E00002036
:10066000704700000CB500200190009034480068ED
:1006700040F480303249086000BF3148006800F41F
:10068000003000900198401C0190009818B9019822
:10069000B0F5A04FF1D12A48006800F4003010B145
:1006A0000120009001E0002000900098012846D130
:1006B00023484030006840F08050214940310860B4
:1006C0002048006840F440401E4908601C4808303B
:1006D00000681B49083108600846006840F4004083
:1006E00008600846006840F4A05008601648091FDA
:1006F0000860081F006840F08070091F086000BF94
:100700000F48006800F000700028F9D040F2057032
:100710000E4908600A480830006820F003000849C4
:10072000083108600846006840F00200086000BF19
:1007300003480830006800F00C000828F8D10CBD10
:10074000003802400070004008544007003C02405E
:10075000042808D14FF0E021096941F004014FF06D
:10076000E022116107E04FF0E021096921F0040166
:100770004FF0E022116170477047000010B5154836
:10078000006840F47000134908601348006840F0A6
:1007900001001149086000200F49083108600E4827
:1007A00000680E4908400C4908600D48091D0860A2
:1007B000081F006820F48020091F086000200649F7
:1007C0000C310860FFF74EFF4FF00060014980399F
:1007D000086010BD88ED00E000380240FFFFF6FE23
:1007E0001030002410B540F225516B4800F017F985
:1007F00000286ED040F22551674800F0E8F86748BD
:10080000007810B9002066490860634800F0C0F91C
:100810000446634800682044614908605F480078E6
:1008200028B9C12C02D002205E49087091E05B48D3
:100830000078012805D1D22CF8D00220594908703F
:1008400087E056480078022812D1012C0DD0022CE6
:100850000BD0032C09D0042C07D0052C05D0062C76
:1008600003D001204F49087073E04F48046070E0E6
:100870004A480078032802D14C48046069E04748A0
:10088000007804280ED14948006804EB002047494D
:10089000086008460068B0F5167F5AD30220414927
:1008A000087056E03D48017840480068001D8142CC
:1008B00005D83A480078401F3D4A145449E037486B
:1008C00001783A480068401D814203D139480460EC
:1008D0003FE05FE03148017834480068801D814284
:1008E0001AD12F48006833490968401A2C4908601A
:1008F00008460068001B08602E48006804EB0020D2
:100900002C4908600846006825490968884220D0BB
:100910000320244908701CE020480178234800681F
:10092000C01D814205D1E32C13D002201D4908705F
:100930000FE01A4801781D4800680830814208D14C
:10094000F42C03D002201749087002E001201A4954
:10095000087012480078401C10490870114800784F
:10096000022807D00F480078012803D00D480078EE
:1009700003280FD100BF8021074800F043F800286A
:10098000F9D008480178044800F007F9FFF73EFD68
:10099000FFF71CFD10BD0000001001400800002002
:1009A000100000201C0000200C0000201800002077
:1009B00030000020140000201D00002001F400720F
:1009C000B2F5007F00D100BFCA430280704710B566
:1009D0000022002340F66A14A14200D100BF0A128F
:1009E00001249440A3B2DC43048010BD21B182896C
:1009F00042F40052828104E082894DF6FF731A406E
:100A00008281704702460020B1F5007F00D100BF0F
:100A100013880B400BB1012000E00020704770B537
:100A20000246002400230025002040F66A16B14249
:100A300000D100BFC1F3421501F01F03012606FAE1
:100A400003F3012D02D19689334006E0022D02D135
:100A5000168A334001E0968A33400C12012606FACA
:100A600004F41688344013B10CB1012000E00020DA
:100A700070BDF0B50346002400260025002040F696
:100A80006A17B94200D100BF1846C1F3421401F001
:100A90001F06012707FA06F5012C01D10C3004E0EE
:100AA000022C01D1103000E014301AB107682F4336
:100AB000076002E00768AF430760F0BD2DE9FF471C
:100AC00005460E460024A14600BFA046B08900B1ED
:100AD00000BF2C8A24F44054F08804432C82AC8953
:100AE00041F20C608443B08831890843718908431E
:100AF0000443AC81AC8A24F44074B0890443AC82D2
:100B00006846FFF739FD2048854202D01F488542DC
:100B100002D1DDF80C9001E0DDF80890A88900F41E
:100B2000004040B109EBC90000EB091031684900F1
:100B3000B0FBF1F707E009EBC90000EB09103168E1
:100B40008900B0FBF1F76420B7FBF0F00401200945
:100B5000642101FB1078A88900F4004040B13220E4
:100B600000EBC800B0FBF1F000F00700044308E020
:100B7000322000EB08106421B0FBF1F000F00F0010
:100B800004432C81BDE8FF870010014000140140A0
:100B900001468888C0F308007047C1F308028280CC
:100BA000704700BFFEE7000010B504466FF0040078
:100BB000FFF7CEFDE11704EB5171C1F3C701074AFE
:100BC00011701046007800EB4001C1EBC0104FF6E9
:100BD000FF7101EAC0000249088010BD0400002036
:100BE000060000204FF4A060FFF79AFCA820FFF752
:100BF000DBFF4FF4164000F03FF8FFF713FC4FF413
:100C000080611748FFF7DDFBFFF700FCFFF7DEFB15
:100C100024E014480078012820D1002012490860FF
:100C200012E000BF80211148FFF7ECFE0028F9D048
:100C30000F480D4A1268815C0C48FFF7AEFF0A4866
:100C40000068401C084908600748006809490968AD
:100C50008842E6D3FFF7BAFBFFF7D8FBD9E70000DD
:100C6000000402401D000020000000200010014090
:100C7000300000201800002010B588B00446012183
:100C80000846FFF759FC01211020FFF765FC0722F9
:100C900009212448FFF770FB07220A212148FFF7AA
:100CA0006BFB4FF4C060069002208DF81C008DF89D
:100CB0001D0000208DF81E0001208DF81F0006A9E0
:100CC0001848FFF711FB02940020ADF80C00ADF8B6
:100CD0000E00ADF81000ADF814000C20ADF81200B5
:100CE00002A91148FFF7EAFE01210F48FFF77EFE37
:100CF00040210D48FFF762FE012240F225510A48CB
:100D0000FFF7B7FE25208DF8040003208DF80500BD
:100D10008DF8060001208DF8070001A8FFF7C4FB3D
:100D200008B010BD00000240001001404FF04070BC
:100D3000E1EE100A70470000580D00080000002086
:100D400030000000C4010008880D000830000020B9
:100D5000B8080000E00100080000000000000000EA
:100D60000000000000000000000000000000000083
:100D70000000000004000000000001020304010262
:080D8000030406070809000046
:040000050800018965
:00000001FF
