:020000040800F2
:1000000088220020E50B00083F0B0008410B000888
:10001000430B0008450B0008470B000800000000D8
:10002000000000000000000000000000490B000874
:100030004B0B0008000000004D0B00084F0B0008A0
:10004000010C0008050C0008090C00080D0C000844
:10005000110C0008150C0008190C00081D0C0008F4
:10006000210C0008250C0008290C00082D0C0008A4
:10007000310C0008350C0008390C00083D0C000854
:10008000410C0008450C0008490C00084D0C000804
:10009000510C0008550C0008590C00085D0C0008B4
:1000A000610C0008650C0008690C00086D0C000864
:1000B000710C0008750C0008790C00087D0C000814
:1000C000810C0008850C0008890C00088D0C0008C4
:1000D000910C000843020008950C0008990C0008D8
:1000E0009D0C0008A10C0008A50C0008A90C000834
:1000F000AD0C0008B10C0008B50C0008B90C0008E4
:10010000BD0C0008C10C0008C50C0008C90C000893
:10011000CD0C0008D10C0008D50C0008D90C000843
:10012000DD0C0008E10C0008E50C0008E90C0008F3
:10013000ED0C0008F10C0008F50C0008F90C0008A3
:10014000FD0C0008010D0008050D0008090D000850
:100150000D0D0008110D0008150D0008190D0008FF
:100160001D0D0008210D0008250D0008290D0008AF
:100170002D0D0008310D0008350D0008390D00085F
:100180003D0D0008410D000830B587B00400012185
:10019000012000F0A9F90121102000F0B3F9994DD8
:1001A00007220921280000F01FFA07220A2128004F
:1001B00000F01AFA4FF4C060019002208DF8080098
:1001C00002208DF8090000208DF80A0001208DF82A
:1001D0000B0001A9280000F0B1F903940020ADF84C
:1001E00010000020ADF812000020ADF8140000202F
:1001F000ADF818000C20ADF81600834C03A92000C0
:1002000000F01CFA0121200000F07CFA40212000BF
:1002100000F0C5FA012240F22551200000F088FAD2
:1002200025208DF8000003208DF8010003208DF8B3
:10023000020001208DF80300684600F0FEFA07B0C6
:1002400030BD70B5704C40F225552900200000F0FB
:10025000ADFA002800F0B4802900200000F0D8FAA0
:100260006A4D2878002802D10020694908602000E2
:1002700000F05AFA0100664A1068081810602878E1
:10028000002806D1C12900F07F8002206149087052
:100290007AE02878012805D1D22975D002205D495D
:1002A000087071E02878022812D101290DD00229A6
:1002B0000BD0032909D0042907D0052905D0062928
:1002C00003D00120534908705EE0534801605BE0B1
:1002D0002878032802D15148016055E02878042885
:1002E0000CD14E48026811EB022101600068B0F5A4
:1002F000167F49D302204749087045E04748036804
:100300001B1D2E78B34205D345482A78104400F8C7
:10031000051C39E02B780668761DB34202D14148AE
:10032000016031E02B780668B61DB34213D13D4B16
:1003300016681868361A16601068401A1060186837
:1003400011EB002119601868116888421CD0032045
:100350003049087018E02A780368DB1D9A4205D1FD
:10036000E32911D002202B4908700DE02A7800689B
:100370000830824208D1F42903D0022025490870B0
:1003800002E00120284908702878401C2870214D7F
:100390002878022805D02878012802D02878032858
:1003A0000ED18021200000F0EDF90028F9D0297845
:1003B00089B2200000F0B4F900F019F800F001F85B
:1003C00070BD002012490860002013490860002019
:1003D0001449086000201149086004200D49087084
:1003E000002011490870002008490870704700205B
:1003F00003E000210A4A1154401CB0F5167FF8D3DF
:1004000070470000000002400010014083020020FD
:100410007402002010000020700200207C020020E6
:1004200014000020780200208402002010B4002173
:1004300000210021022100210221DFF8E4201168BF
:1004400011F00C01002904D0042906D0082908D095
:100450002BE0DFF8D41001602AE0DFF8D010016053
:1004600026E0DFF8C0402168C1F38051236813F013
:100470003F03002908D0DFF8B410B1FBF3F3216883
:10048000C1F388114B4307E0DFF89C10B1FBF3F395
:100490002168C1F388114B432168C1F30141491C14
:1004A0004900B3FBF1F1016002E0DFF87C1001606C
:1004B000116811F0F0010909DFF87430595C046823
:1004C000CC404460116811F4E051890A595C4468D9
:1004D000CC408460116811F46041490B595C42685A
:1004E000CA40C26010BC7047C9B2002904D011498B
:1004F0000A681043086004E00E490A6832EA000006
:1005000008607047C9B2002904D00B490A6810433B
:10051000086004E008490A6832EA00000860704791
:1005200008380240043802400024F40000127A0027
:10053000000000203038024044380240F0B400226D
:1005400000220022002349E0012414FA03F20D687E
:100550001540954241D1032502681E00F6B276008F
:1005600015FA06F6B243026006680F791A00D2B295
:10057000520097403E4306600A79012A02D00A7968
:10058000022A1AD182681E00F6B2760015FA06F623
:10059000B243826086684F791A00D2B25200974007
:1005A0003E43866042689C4032EA040444604268EC
:1005B0008C799C40A4B222434260C4681A00D2B233
:1005C0005200954034EA0505C560C468CD791A002B
:1005D000D2B2520095402C43C4605B1C102BB3D3A5
:1005E000F0BC70470183704770B400230023D2B27F
:1005F00011F00703DBB29B009A400B009BB2DB10AB
:1006000000EB83040B009BB2DB1000EB83031D6A3D
:100610000F2611F00703DBB29B009E40B543256215
:100620000B009BB2DB1000EB83031B6A1A4389B2F9
:10063000C91000EB8100026270BC704738B584B00D
:1006400005000C000020002000200020A0890028C8
:10065000298A31F44051E08801432982A989284838
:100660000140A28820890243608902431143A98185
:10067000A98A31F44071A0890143A9826846FFF735
:10068000D5FE1D48854202D01C48854201D1039900
:1006900000E00299A889000406D51920414320688A
:1006A0004000B1FBF0F205E01920414320688000D2
:1006B000B1FBF0F26420B2FBF0F109010B001B0961
:1006C000642000FB1322A889000408D5D000323032
:1006D0006422B0FBF2F010F00700014307E01001C4
:1006E00032306422B0FBF2F010F00F000143298198
:1006F00005B030BD000000000010014000140140B2
:10070000F3E9FFFFC9B2002904D0818951F40051F7
:10071000818104E082894DF6FF710A408281704731
:10072000C905C90D818070478088C005C00D70471C
:1007300010B400230023002300230B0040F66A14AA
:100740009BB2A3420B00DBB25B09DBB289B211F0B2
:100750001F01012414FA01F1012B01D10C3004E036
:10076000022B01D1103000E01430D2B2002A03D0A5
:1007700002681143016003E0026832EA010101608E
:1007800010BC704700220A0092B2B2F5007F0088C8
:10079000084201D0012000E00020C0B270470A00EA
:1007A00092B2920589B2C9430180704710B4002209
:1007B0000022002200220A0040F66A1392B29A42F6
:1007C0000B00DBB25B09DBB20A0092B212F01F022F
:1007D000012414FA02F2012B02D183891A4006E0A7
:1007E000022B02D1038A1A4001E0838A1A4089B29F
:1007F000090A89B214FA01F100880140002A03D0E5
:10080000002901D0012000E00020C0B210BC7047D8
:10081000002200220A0040F66A1392B29A4289B27C
:10082000090A012212FA01F189B2C9430180704715
:1008300021490843214908607047002100210F2306
:10084000C17800291FD01D49096811F4E061D1F574
:10085000E061090AD1F10402DBB20B41417811FADF
:1008600002F281780B401A43120115490378CA54E9
:100870000121027812F01F029140124A00784011C3
:1008800042F8201009E00121027812F01F02914085
:100890000D4A0078401142F820107047042805D115
:1008A0000A48016851F00401016004E0074801684A
:1008B00031F00401016070470000FA050CED00E022
:1008C00000E400E000E100E080E100E010E000E092
:1008D00080B53949086850F0010008600020374AA7
:1008E00010600A68364802400A603648364A10608E
:1008F000086830F48020086000203449086000F067
:1009000005F85FF000603249086001BD82B0002048
:100910000190002000902849086850F48030086059
:10092000086810F4003000900198401C0190009875
:10093000002803D10198B0F5A04FF1D108688003D9
:1009400002D50120009001E00020009000980128CD
:100950002FD12048026852F0805202601E4802687F
:1009600052F440420260154802680260026852F484
:1009700000420260026852F4A0520260174A124B11
:100980001A600A6852F080720A600A689201FCD507
:1009900040F20571124A11600168890889000160FE
:1009A000016851F002010160016811F00C01082991
:1009B000FAD102B070470000003802400838024007
:1009C000FFFFF6FE10300024043802400C380240CD
:1009D00008ED00E040380240007000400854400735
:1009E000003C024038B54FF4A060FFF721FFA8207B
:1009F00000F038F84FF41640FFF7C6FB00F04AF855
:100A0000FFF7F5FCFFF7DDFC19E0114D8021280010
:100A1000FFF7B8FE0028F8D00E482168415C89B283
:100A20002800FFF77DFE2068401C206020680A49EE
:100A300009688842E9D3FFF7C4FCFFF7D8FC0748F0
:100A400000780128FBD1064C00202060EEE700BFB3
:100A500000100140140000207C02002084020020CD
:100A60006C02002010B504007FF00400FFF716FFB1
:100A70000648E4B2082194FBF1F1017000784FF4CC
:100A80007A7110FB01F00249088010BD820200203B
:100A9000800200201CB501212020FFF725FD4FF426
:100AA000C060009001208DF8040000208DF8060041
:100AB00003208DF8050001208DF80700054C6946DC
:100AC0002000FFF73BFD4FF4C0612000FFF78AFDD7
:100AD00013BD00BF0014024030B4002513E050F8ED
:100AE000042BD30744BFA9F101039A18091F042955
:100AF00042F8045BFAD213468C0744BF15809B1C56
:100B0000C90748BF1D7050F8041B0029E7D130BC4D
:100B1000704730B450F8041B79B10268436802444E
:100B20000830DC0744BFA9F10104E31852F8045B64
:100B300043F8045B091FF9D1ECE730BC70477047FC
:100B4000FEE7FEE7FEE7FEE7704770477047704735
:100B500010B5074979441831064C7C44163404E03A
:100B60000A68081D114488470146A142F8D110BD0A
:100B7000080000002800000061FFFFFF7402000071
:100B800014000020000000008BFFFFFF1400000095
:100B9000B4010000000000200000000000F00DF88B
:100BA000002801D0FFF7D4FFAFF300800020AFF39F
:100BB0000080FFF717FF00F002F80120704700F0F7
:100BC00001B800000746384600F002F8FBE70000D5
:100BD00080B5AFF30080024A11001820ABBEFBE7DE
:100BE000260002000148804701480047D10800085C
:100BF000F50B0008AFF30080AFF30080FFF7CEFFE6
:100C0000FFF7FEBFFFF7FEBFFFF7FEBFFFF7FEBF18
:100C1000FFF7FEBFFFF7FEBFFFF7FEBFFFF7FEBF08
:100C2000FFF7FEBFFFF7FEBFFFF7FEBFFFF7FEBFF8
:100C3000FFF7FEBFFFF7FEBFFFF7FEBFFFF7FEBFE8
:100C4000FFF7FEBFFFF7FEBFFFF7FEBFFFF7FEBFD8
:100C5000FFF7FEBFFFF7FEBFFFF7FEBFFFF7FEBFC8
:100C6000FFF7FEBFFFF7FEBFFFF7FEBFFFF7FEBFB8
:100C7000FFF7FEBFFFF7FEBFFFF7FEBFFFF7FEBFA8
:100C8000FFF7FEBFFFF7FEBFFFF7FEBFFFF7FEBF98
:100C9000FFF7FEBFFFF7FEBFFFF7FEBFFFF7FEBF88
:100CA000FFF7FEBFFFF7FEBFFFF7FEBFFFF7FEBF78
:100CB000FFF7FEBFFFF7FEBFFFF7FEBFFFF7FEBF68
:100CC000FFF7FEBFFFF7FEBFFFF7FEBFFFF7FEBF58
:100CD000FFF7FEBFFFF7FEBFFFF7FEBFFFF7FEBF48
:100CE000FFF7FEBFFFF7FEBFFFF7FEBFFFF7FEBF38
:100CF000FFF7FEBFFFF7FEBFFFF7FEBFFFF7FEBF28
:100D0000FFF7FEBFFFF7FEBFFFF7FEBFFFF7FEBF17
:100D1000FFF7FEBFFFF7FEBFFFF7FEBFFFF7FEBF07
:100D2000FFF7FEBFFFF7FEBFFFF7FEBFFFF7FEBFF7
:100D3000FFF7FEBFFFF7FEBFFFF7FEBFFFF7FEBFE7
:100D4000FFF7FEBF000000000102030401020304DC
:080D5000060708090400000079
:0400000508000BF5EF
:00000001FF
