:020000040800F2
:1000000078580020A90D0008170C0008190C0008EA
:100010001B0C00081D0C00081F0C0008000000004D
:10002000000000000000000000000000210C00089B
:10003000230C000800000000250C0008270C000815
:10004000C50D0008C90D0008CD0D0008D10D000830
:10005000D50D0008D90D0008DD0D0008E10D0008E0
:10006000E50D0008E90D0008ED0D0008F10D000890
:10007000F50D0008F90D0008FD0D0008010E00083F
:10008000050E0008090E00080D0E0008110E0008EC
:10009000150E0008190E00081D0E0008210E00089C
:1000A000250E0008290E00082D0E0008310E00084C
:1000B000350E0008390E00083D0E0008410E0008FC
:1000C000450E0008490E00084D0E0008510E0008AC
:1000D000550E000843020008590E00085D0E000886
:1000E000610E0008650E0008690E00086D0E00081C
:1000F000710E0008750E0008790E00087D0E0008CC
:10010000810E0008850E0008890E00088D0E00087B
:10011000910E0008950E0008990E00089D0E00082B
:10012000A10E0008A50E0008A90E0008AD0E0008DB
:10013000B10E0008B50E0008B90E0008BD0E00088B
:10014000C10E0008C50E0008C90E0008CD0E00083B
:10015000D10E0008D50E0008D90E0008DD0E0008EB
:10016000E10E0008E50E0008E90E0008ED0E00089B
:10017000F10E0008F50E0008F90E0008FD0E00084B
:10018000010F0008050F000830B587B004000121F9
:10019000012000F002FA0121102000F00CFAB24D0B
:1001A00007220921280000F08AFA07220A212800E4
:1001B00000F085FA4FF4C060019002208DF808002D
:1001C00002208DF8090000208DF80A0001208DF82A
:1001D0000B0001A9280000F00BFA03940020ADF8F1
:1001E00010000020ADF812000020ADF8140000202F
:1001F000ADF818000C20ADF816009A4D03A92800A0
:1002000000F08EFA0121280000F0FCFA40212800BD
:1002100000F055FB012240F22551280000F009FBB7
:1002200025208DF8000003208DF8010003208DF8B3
:10023000020001208DF80300684600F0B2FB07B011
:1002400030BD70B5874D40F225563100280000F0D2
:100250003EFB002800F0CF803100280000F06CFB4E
:10026000824E3068002802D10020814908602800B1
:1002700000F0DBFA04007E49086820180860306846
:10028000002809D1C12C00F09A804FF6FF70306031
:1002900002207849086092E03068012809D1D22C08
:1002A00000F08D804FF6FF703060022071490860C9
:1002B00085E03068022815D1012C10D0022C0ED018
:1002C000032C0CD0042C0AD0052C08D0062C06D008
:1002D0004FF6FF7030600120664908606FE06648A5
:1002E00004606CE03068032802D16448046066E072
:1002F000306804280FD16148016861180160006806
:1003000040F2232188425AD34FF6FF70306002201A
:100310005849086053E059480268121D33689A42F0
:1003200006D35748316800EB810040F8144C46E092
:10033000326803685B1D9A4202D1524804603EE075
:10034000326803689B1D9A4217D14E4A0B681068A9
:100350001B1A0B600868001B0860136814F1080082
:100360008340136010680968884228D04FF6FF70F8
:10037000306003203F49086021E031680268D21DE7
:10038000914208D1E32C1AD04FF6FF703060022062
:100390003849086013E031680068083081420ED1A6
:1003A000F42C06D04FF6FF7030600220314908600F
:1003B00005E04FF6FF703060012033490860306877
:1003C000401C30602B4E3068022805D03068012870
:1003D00002D0306803280ED18021280000F061FA95
:1003E0000028F9D0316889B2280000F01AFA00F02C
:1003F00016F800F001F870BD00201D4908600020CB
:100400001D49086000201F49086000201B49086042
:1004100004201849086000201C49086070471C48E7
:10042000002101600168B1F5167F08D20021144A4D
:10043000036842F823100168491C0160F2E7704725
:10044000134800210160016840F6B832914208D299
:100450000021104A036842F823100168491C01601A
:10046000F1E7704700100140000002405C380020B6
:10047000683800201000002060380020703800200C
:10048000F42E00206C3800205838002064380020FA
:1004900054380020140000202DE9F04F0100002204
:1004A00000230024022500200226DFF82871D7F857
:1004B00000C01CF00C0CE646BEF1000F06D0BEF1E9
:1004C000040F07D0BEF1080F08D037E0DFF80C2189
:1004D0000A6036E0DFF808210A6032E0DFF8F8E071
:1004E000DEF80020C2F380521000DEF8002012F087
:1004F0003F02160000280BD0DFF8E420B2FBF6F82C
:10050000DEF80020C2F3881202FB08F844460AE035
:10051000DFF8C820B2FBF6F8DEF80020C2F388123C
:1005200002FB08F84446DEF80020C2F30142521CE8
:1005300052001500B4FBF5F20A6002E0DFF89C20DF
:100540000A60D7F8008018F0F0085FEA1818DFF8A2
:1005500094A01AF80820D1F800E03EFA02FEC1F893
:1005600004E0D7F8009019F4E0595FEA99291AF8E5
:1005700009E0D1F804B03BFA0EFBC1F808B03F68BF
:1005800017F460477F0B1AF807A0D1F804B03BFAC4
:100590000AFBC1F80CB0BDE8F08F0A00D2B2002A05
:1005A00004D0114A13680343136003E00E4A136832
:1005B0008343136070470A00D2B2002A04D00B4A6A
:1005C00013680343136003E0084A1368834313600E
:1005D0007047000008380240043802400024F4004C
:1005E00000127A00000000203038024044380240F7
:1005F000F0B50022002300240025102D5CD2012636
:1006000016FA05F213000A681A4014009C4251D1F0
:1006100003270268AC465FFA8CFC5FEA4C0C17FAC1
:100620000CFC32EA0C020260D0F800C091F804E041
:100630002A00D2B252001EFA02FE5EEA0C0CC0F88A
:1006400000C00A79012A02D00A79022A22D18268DE
:10065000AC465FFA8CFC5FEA4C0C17FA0CFC32EAF1
:100660000C028260D0F808C091F805E02A00D2B2EE
:1006700052001EFA02FE5EEA0C0CC0F808C0426886
:10068000AE4032EA0606466042688E79AE40B6B2A7
:1006900032434260C6682A00D2B25200974036EA1E
:1006A0000707C760C668CF792A00D2B252009740C8
:1006B0003E43C6606D1CA0E7F0BD01837047F0B5F6
:1006C000002400251300DBB211F00706F6B2B600D5
:1006D00013FA06F60B009BB2DB1000EB83070B004E
:1006E0009BB2DB1000EB8303D3F820C05FF00F0E4A
:1006F00011F00703DBB29B001EFA03FE3CEA0E0C6E
:10070000C7F820C00B009BB2DB1000EB83031B6A11
:1007100033430F00BFB2FF1000EB87073B62F0BD11
:100720002DE9F04F85B004000D00002600275FF092
:1007300000085FF00009A8890028218A31F440519F
:10074000E8880143009100982082B4F80CA02C485E
:1007500010EA0A0AA988288901436889014351EAF5
:100760000A0AA4F80CA0B4F814B03BF4407BA889A2
:1007700050EA0B0BA4F814B001A8FFF78DFE1E4839
:10078000844202D01D48844201D1049900E00399BB
:10079000A089000407D5192000FB01F02A68520047
:1007A000B0FBF2F206E0192000FB01F02A6892008B
:1007B000B0FBF2F26420B2FBF0F6360133001B0905
:1007C000642000FB1323A089000408D5D800323030
:1007D0006427B0FBF7F010F00700064307E01801AC
:1007E00032306427B0FBF7F010F00F00064326818B
:1007F00005B0BDE8F08F000000100140001401407A
:10080000F3E9FFFF0A00D2B2002A04D0828952F431
:100810000052828104E083894DF6FF721340838188
:100820007047CA05D20D828070478088C005C00D10
:1008300070472DE9F0410023002500275FF0000EEE
:100840000C0040F66A16A4B2B44280460C00E4B232
:100850006409E4B20E00B6B216F01F065FF0010C98
:100860001CFA06FC012C02D118F10C0806E0022C3F
:1008700002D118F1100801E018F114081300DBB2DE
:10088000002B06D0D8F800305CEA0303C8F800302B
:1008900005E0D8F8003033EA0C03C8F80030BDE8B2
:1008A000F08102000023080080B2B0F5007F1088BC
:1008B000084201D0012000E00020C0B270470A00C9
:1008C00092B292050A0092B2D24302807047F0B40D
:1008D000040000270020002200260B0040F66A15C5
:1008E0009BB2AB420D00EDB26D09EDB20B009BB2B5
:1008F00013F01F035FF0010C1CFA03F3012D02D16A
:10090000A089034006E0022D02D1208A034001E0C5
:10091000A08A03400A0092B2120A92B21CFA02F2B2
:1009200020880240002B03D0002A01D0012000E0E3
:100930000020C0B2F0BC704770B4002200240B004D
:1009400040F66A159BB2AB420B009BB21B0A012515
:100950009D402E00B6B2F643068070BC704730B49E
:10096000002513E050F8042BD30744BFA9F101037D
:100970009A18091F042942F8045BFAD213468C071F
:1009800044BF15809B1CC90748BF1D7050F8041B4D
:100990000029E7D130BC704723490143234A116045
:1009A0007047F0B4002200230F24C178002920D022
:1009B0001E49096811F4E061D1F5E061090AD1F13D
:1009C00004052B00E4B20C4145789D408678264012
:1009D00035432D012A00164D0678AA5501250678C3
:1009E00016F01F06B540134E07787F1146F82750C2
:1009F00009E00121057815F01F05A9400E4D067884
:100A0000761145F82610F0BC7047042805D10B4933
:100A10000A6852F004020A6004E008490A6832F0E9
:100A200004020A60704700000000FA050CED00E0C7
:100A300000E400E000E100E080E100E010E000E020
:100A400080B53949086850F0010008600020374A35
:100A500010600A68364802400A603648364A10601C
:100A6000086830F48020086000203449086000F0F5
:100A700005F85FF000603249086001BD82B00020D7
:100A80000190002000902849086850F480300860E8
:100A9000086810F4003000900198401C0190009804
:100AA000002803D10198B0F5A04FF1D10868800368
:100AB00002D50120009001E000200090009801285C
:100AC0002FD12048026852F0805202601E4802680E
:100AD00052F440420260154802680260026852F413
:100AE00000420260026852F4A0520260174A124BA0
:100AF0001A600A6852F080720A600A689201FCD596
:100B000040F20571124A116001688908890001608C
:100B1000016851F002010160016811F00C0108291F
:100B2000FAD102B070470000003802400838024095
:100B3000FFFFF6FE10300024043802400C3802405B
:100B400008ED00E0403802400070004008544007C3
:100B5000003C024010B504007FF00400FFF755FF91
:100B600016482100C9B2082291FBF2F10170007809
:100B70004FF47A7110FB01F01149088010BD10B4D8
:100B800003009BB20E4909884B430E490B600E4986
:100B900000230B600D4B1C6854F001041C601C68A2
:100BA000220012F00114012CF9D01C6864086400C2
:100BB0001C6000230B6010BC7047000076380020DA
:100BC0007438002014E000E018E000E010E000E0DD
:100BD00070B50400200080B24FF4077190FBF1F56E
:100BE000200080B24FF4077190FBF1F601FB16066E
:100BF0002800C0B2002805D04FF40770FFF7BFFFF0
:100C00006D1EF5E7300080B2002803D0300080B2BE
:100C1000FFF7B5FF70BD7047FEE7FEE7FEE7FEE7B2
:100C2000704770477047704738B54FF4A060FFF7C2
:100C3000B3FEA820FFF78EFF5FF4E130FFF7A4FAC0
:100C400000F030F8FFF7EBFBFFF7FAFBFFF7D4FB00
:100C500011490868002801D1012000E00020C0B23D
:100C600008604FF47A70FFF7B3FF0C4C206801283E
:100C7000EED10B4D80212800FFF713FE0028F8D09D
:100C800000212800FFF7CDFDFFF7B6FBFFF7C7FBFC
:100C900000202060DCE700BFA482424258380020D8
:100CA000001001401CB501212020FFF776FC4FF415
:100CB000C060009001208DF8040000208DF806002F
:100CC00003208DF8050001208DF80700054C6946CA
:100CD0002000FFF78DFC4FF4C0612000FFF7EDFC12
:100CE00013BD00BF0014024030B450F8041B79B1AA
:100CF0000268436802440830DC0744BFA9F10104DC
:100D0000E31852F8045B43F8045B091FF9D1ECE7E0
:100D100030BC704710B5074979441831064C7C4403
:100D2000163404E00A68081D114488470146A142B0
:100D3000F8D110BD080000002800000023FCFFFFD0
:100D40006438000014000020000000009DFFFFFF39
:100D500014000000B40100000000002000000000AA
:100D600000F00DF8002801D0FFF7D4FFAFF30080AA
:100D70000020AFF30080FFF757FF00F002F80120DA
:100D8000704700F001B800000746384600F002F84E
:100D9000FBE7000080B5AFF30080024A1100182085
:100DA000ABBEFBE726000200014880470148004730
:100DB000410A0008B90D0008AFF30080AFF30080CE
:100DC000FFF7CEFFFFF7FEBFFFF7FEBFFFF7FEBF47
:100DD000FFF7FEBFFFF7FEBFFFF7FEBFFFF7FEBF47
:100DE000FFF7FEBFFFF7FEBFFFF7FEBFFFF7FEBF37
:100DF000FFF7FEBFFFF7FEBFFFF7FEBFFFF7FEBF27
:100E0000FFF7FEBFFFF7FEBFFFF7FEBFFFF7FEBF16
:100E1000FFF7FEBFFFF7FEBFFFF7FEBFFFF7FEBF06
:100E2000FFF7FEBFFFF7FEBFFFF7FEBFFFF7FEBFF6
:100E3000FFF7FEBFFFF7FEBFFFF7FEBFFFF7FEBFE6
:100E4000FFF7FEBFFFF7FEBFFFF7FEBFFFF7FEBFD6
:100E5000FFF7FEBFFFF7FEBFFFF7FEBFFFF7FEBFC6
:100E6000FFF7FEBFFFF7FEBFFFF7FEBFFFF7FEBFB6
:100E7000FFF7FEBFFFF7FEBFFFF7FEBFFFF7FEBFA6
:100E8000FFF7FEBFFFF7FEBFFFF7FEBFFFF7FEBF96
:100E9000FFF7FEBFFFF7FEBFFFF7FEBFFFF7FEBF86
:100EA000FFF7FEBFFFF7FEBFFFF7FEBFFFF7FEBF76
:100EB000FFF7FEBFFFF7FEBFFFF7FEBFFFF7FEBF66
:100EC000FFF7FEBFFFF7FEBFFFF7FEBFFFF7FEBF56
:100ED000FFF7FEBFFFF7FEBFFFF7FEBFFFF7FEBF46
:100EE000FFF7FEBFFFF7FEBFFFF7FEBFFFF7FEBF36
:100EF000FFF7FEBFFFF7FEBFFFF7FEBFFFF7FEBF26
:100F0000FFF7FEBFFFF7FEBF000000000102030471
:0C0F1000010203040607080904000000A9
:0400000508000DB929
:00000001FF
