:020000040800F2
:10000000A0290020B51500082713000829130008AF
:100010002B1300082D1300082F1300080000000008
:100020000000000000000000000000003113000884
:1000300033130008000000003513000837130008D0
:10004000D1150008D5150008D9150008DD150008E0
:10005000E1150008E5150008E9150008ED15000890
:10006000F1150008F5150008F9150008FD15000840
:100070000116000805160008091600080D160008EC
:100080001116000815160008191600081D1600089C
:100090002116000825160008291600082D1600084C
:1000A0003116000835160008391600083D160008FC
:1000B0004116000845160008491600084D160008AC
:1000C0005116000855160008591600085D1600085C
:1000D00061160008C70C00086516000869160008BC
:1000E0006D160008711600087516000879160008CC
:1000F0007D1600088116000885160008891600087C
:100100008D1600089116000895160008991600082B
:100110009D160008A1160008A5160008A9160008DB
:10012000AD160008B1160008B5160008B91600088B
:10013000BD160008C1160008C5160008C91600083B
:10014000CD160008D1160008D5160008D9160008EB
:10015000DD160008E1160008E5160008E91600089B
:10016000ED160008F1160008F5160008F91600084B
:10017000FD160008011700080517000809170008F8
:100180000D170008111700083EB50121022000F0EC
:10019000EAFB0121042000F0E6FB0121082000F029
:1001A000E2FBFF20009001208DF8040000208DF874
:1001B000060003208DF8050001208DF80700DFF808
:1001C0007C466946200000F0F9FBFF21200000F08A
:1001D0006AFC4FF47050009000208DF8040000205D
:1001E0008DF8060003208DF8050002208DF8070029
:1001F000DFF84C466946200000F0E0FB4FF47051F8
:10020000200000F050FC40F6FC04009400208DF823
:10021000040003208DF8050002208DF80700DFF8A8
:1002200024566946280000F0C9FB2100280000F090
:100230003AFC37BDF8B5060016F0F004002C0FD1DB
:100240000020DFF8041608600020DFF800160860C0
:100250000020DFF8FC1508600020DFF8F8150860C2
:10026000102C0FD10020DFF8E01508600020DFF827
:10027000DC1508600020DFF8D81508600120DFF8E1
:10028000D4150860202C0FD10020DFF8BC150860C1
:100290000020DFF8B81508600120DFF8B415086009
:1002A0000020DFF8B0150860302C0FD10020DFF8F7
:1002B000981508600020DFF8941508600120DFF829
:1002C000901508600120DFF88C150860402C0FD1D4
:1002D0000020DFF8741508600120DFF87015086051
:1002E0000020DFF86C1508600020DFF86815086052
:1002F000502C0FD10020DFF8501508600120DFF8E6
:100300004C1508600020DFF8481508600120DFF870
:1003100044150860602C0FD10020DFF82C15086010
:100320000120DFF8281508600120DFF82415086097
:100330000020DFF820150860702C0FD10020DFF8B6
:10034000081508600120DFF8041508600120DFF8B7
:10035000001508600120DFF8FC140860802C0FD124
:100360000120DFF8E41408600020DFF8E0140860E2
:100370000020DFF8DC1408600020DFF8D8140860E3
:10038000902C0FD10120DFF8C01408600020DFF8A6
:10039000BC1408600020DFF8B81408600120DFF802
:1003A000B4140860A02C0FD10120DFF89C14086061
:1003B0000020DFF8981408600120DFF8941408602A
:1003C0000020DFF890140860B02C0FD10120DFF876
:1003D000781408600020DFF8741408600120DFF84A
:1003E000701408600120DFF86C140860C02C0FD175
:1003F0000120DFF8541408600120DFF85014086071
:100400000020DFF84C1408600020DFF84814086072
:10041000D02C0FD10120DFF8301408600120DFF864
:100420002C1408600020DFF8281408600120DFF891
:1004300024140860E02C0FD10120DFF80C140860B0
:100440000120DFF8081408600120DFF804140860B8
:100450000020DFF800140860F02C0FD10120DFF835
:10046000E81308600120DFF8E41308600120DFF8DA
:10047000E01308600120DFF8DC130860DFF8D873B0
:10048000012038600A2000F07FFB0020386016F061
:100490000F05002D0FD10020DFF8AC1308600020FD
:1004A000DFF8A81308600020DFF8A413086000201C
:1004B000DFF8A0130860012D0FD10020DFF88813AA
:1004C00008600020DFF8841308600020DFF8801344
:1004D00008600120DFF87C130860022D0FD1002096
:1004E000DFF8641308600020DFF860130860012063
:1004F000DFF85C1308600020DFF858130860032D54
:100500000FD10020DFF8401308600020DFF83C1313
:1005100008600120DFF8381308600120DFF8341389
:100520000860042D0FD10020DFF81C1308600120A3
:10053000DFF8181308600020DFF8141308600020AB
:10054000DFF810130860052D0ED10020DFF8F81237
:1005500008600120DFF8F41208600020DFF8F012D4
:1005600008600120BB490860062D0BD10020B64968
:1005700008600120B54908600120B54908600020E5
:10058000B4490860072D0BD10020AF490860012055
:10059000AE4908600120AE4908600120AD490860FD
:1005A000082D0BD10120A84908600020A749086048
:1005B0000020A74908600020A6490860092D0BD13A
:1005C0000120A14908600020A04908600020A0493E
:1005D000086001209F4908600A2D0BD101209A492B
:1005E00008600020994908600120994908600020AE
:1005F000984908600B2D0BD1012093490860002019
:1006000092490860012092490860012091490860E0
:100610000C2D0BD101208C49086001208B4908600A
:1006200000208B49086000208A4908600D2D0BD1FD
:100630000120854908600120844908600020844920
:1006400008600120834908600E2D0BD101207E49EE
:10065000086001207D49086001207D490860002074
:100660007C4908600F2D0BD10120774908600120DB
:1006700076490860012076490860012075490860C4
:10068000012038600A2000F07FFA00203860F1BDB8
:1006900038B5724C724D206805EB800080681028D8
:1006A00011D0206805EB8000806802280BD02068FC
:1006B00005EB80008068202805D0206805EB8000CD
:1006C000806822284AD1206805EB800080681028C5
:1006D0000AD100F0A5FC00F02CFC00F0A9FC00F011
:1006E00076FC00F013FCA8E0206805EB8000806831
:1006F000022811D100F094FC0220FFF79BFD206836
:1007000005EB80004069FFF795FD00F091FC00F0DB
:100710005EFC00F0FBFB90E0206805EB8000806849
:1007200020280AD100F07CFC00F01FFC00F080FCC7
:1007300000F04DFC00F0EAFB7FE0206805EB800054
:100740008068222879D100F06BFC00F024FC00F0D6
:100750006FFC00F03CFC00F0D9FB6EE0206805EB7C
:100760008000806860281DD0206805EB80008068CC
:10077000302817D0206805EB80008068702811D0E1
:10078000206805EB8000806871280BD0206805EB9D
:1007900080008068722805D0206805EB80008068A2
:1007A00080280CD100F03CFC206805EB80008068BC
:1007B000FFF740FD00F00BFC00F0A8FB3DE02068D7
:1007C00005EB80008068012829D0206805EB8000B7
:1007D0008068112823D0206805EB800080684028BD
:1007E0001DD0206805EB80008068502817D0206855
:1007F00005EB80008068512811D0206805EB80004F
:10080000806821280BD0206805EB80008068A02834
:1008100005D0206805EB8000806803280DD100F02A
:10082000FFFB206805EB80008068FFF703FD00F008
:10083000FFFB00F0CCFB00F069FB31BD000802407B
:1008400000040240000C0240800241428402414206
:10085000880241428C0241429002414284090020B8
:10086000140000202DE9F04F010000220023002495
:10087000022500200226DFF82871D7F800C01CF0FE
:100880000C0CE646BEF1000F06D0BEF1040F07D0F7
:10089000BEF1080F08D037E0DFF80C210A6036E01F
:1008A000DFF808210A6032E0DFF8F8E0DEF8002027
:1008B000C2F380521000DEF8002012F03F02160052
:1008C00000280BD0DFF8E420B2FBF6F8DEF80020B9
:1008D000C2F3881202FB08F844460AE0DFF8C82099
:1008E000B2FBF6F8DEF80020C2F3881202FB08F82B
:1008F0004446DEF80020C2F30142521C52001500AB
:10090000B4FBF5F20A6002E0DFF89C200A60D7F839
:10091000008018F0F0085FEA1818DFF894A01AF8C1
:100920000820D1F800E03EFA02FEC1F804E0D7F852
:10093000009019F4E0595FEA99291AF809E0D1F812
:1009400004B03BFA0EFBC1F808B03F6817F46047EB
:100950007F0B1AF807A0D1F804B03BFA0AFBC1F8E4
:100960000CB0BDE8F08F0A00D2B2002A04D0114AC0
:1009700013680343136003E00E4A13688343136054
:1009800070470A00D2B2002A04D00B4A136803430E
:10099000136003E0084A1368834313607047000044
:1009A00008380240043802400024F40000127A00A3
:1009B000000000203038024044380240F0B50022E8
:1009C000002300240025102D5CD2012616FA05F222
:1009D00013000A681A4014009C4251D10327026890
:1009E000AC465FFA8CFC5FEA4C0C17FA0CFC32EA5E
:1009F0000C020260D0F800C091F804E02A00D2B2E4
:100A000052001EFA02FE5EEA0C0CC0F800C00A7921
:100A1000012A02D00A79022A22D18268AC465FFA02
:100A20008CFC5FEA4C0C17FA0CFC32EA0C02826078
:100A3000D0F808C091F805E02A00D2B252001EFAA0
:100A400002FE5EEA0C0CC0F808C04268AE4032EA12
:100A50000606466042688E79AE40B6B232434260C6
:100A6000C6682A00D2B25200974036EA0707C7602C
:100A7000C668CF792A00D2B2520097403E43C66082
:100A80006D1CA0E7F0BD10B40200002310690C003B
:100A9000A4B2204201D0012000E00020C0B210BC6E
:100AA00070470183704741837047F0B500240025EB
:100AB0001300DBB211F00706F6B2B60013FA06F621
:100AC0000B009BB2DB1000EB83070B009BB2DB102B
:100AD00000EB8303D3F820C05FF00F0E11F0070383
:100AE000DBB29B001EFA03FE3CEA0E0CC7F820C0E6
:100AF0000B009BB2DB1000EB83031B6A33430F0038
:100B0000BFB2FF1000EB87073B62F0BD10B50400D9
:100B10007FF0040000F0CDFA16482100C9B2082287
:100B200091FBF2F1017000784FF47A7110FB01F043
:100B30001149088010BD10B403009BB20E4909880A
:100B40004B430E490B600E4900230B600D4B1C6894
:100B500054F001041C601C68220012F00114012CE6
:100B6000F9D01C68640864001C6000230B6010BC92
:100B7000704700009A0900209809002014E000E066
:100B800018E000E010E000E070B50400200080B242
:100B90004FF4077190FBF1F5200080B24FF407711C
:100BA00090FBF1F601FB16062800C0B2002805D024
:100BB0004FF40770FFF7BFFF6D1EF5E7300080B2FE
:100BC000002803D0300080B2FFF7B5FF70BD30B40D
:100BD000002513E050F8042BD30744BFA9F101030B
:100BE0009A18091F042942F8045BFAD213468C07AD
:100BF00044BF15809B1CC90748BF1D7050F8041BDB
:100C00000029E7D130BC704730B587B0040001211E
:100C10000120FFF7A8FE01211020FFF7B2FEDFF848
:100C2000D453072209212800FFF73FFF07220A219A
:100C30002800FFF73AFF4FF4C060019002208DF8C2
:100C4000080002208DF8090000208DF80A0001201C
:100C50008DF80B0001A92800FFF7B0FE03940020D7
:100C6000ADF810000020ADF812000020ADF814001F
:100C70000020ADF818000C20ADF81600DFF8705316
:100C800003A9280000F030FA0121280000F09EFAA4
:100C90004021280000F0F7FA012240F225512800F7
:100CA00000F0ABFA25208DF8000003208DF801003C
:100CB00003208DF8020001208DF80300684600F043
:100CC000C4F907B030BD38B5DFF8244340F22555EC
:100CD0002900200000F0DFFA002811D029002000B0
:100CE00000F00EFB200000F084FADFF80C1380B255
:100CF000DFF808230B6842F823000868401C0860EE
:100D0000DFF8F402DFF8F412026801EB820252F815
:100D1000042CFF2A04D10268521EDFF8E4321A6064
:100D2000026801EB820252F8042C552A03D10068B4
:100D3000401EB44A1060B248026851F82220FF2ACF
:100D400019D10068401C002801D1012000E00020DA
:100D5000C0B251F8200000280DD0AA48026851F80E
:100D60002220552A07D1006801EB80004068AA289C
:100D700001D100F001F831BD38B5A3490020086069
:100D8000A0480A6803689B1E9A420BD29F4A1368C8
:100D90009A480C6850F82400C31813600868401C77
:100DA0000860EDE79A4A9549036801EB830353F81D
:100DB000043C1B029BB2006801EB800030F8080C79
:100DC00003431360914800681268904240F08A80A3
:100DD0008B48026801EB82029268012A5FD00268A8
:100DE00001EB82029268102A59D0026801EB82025C
:100DF0009268112A53D0026801EB82029268402A5D
:100E00004DD0026801EB82029268502A47D00268F6
:100E100001EB82029268512A41D0026801EB820202
:100E20009268022A3BD0026801EB82029268202A73
:100E300035D0026801EB82029268212A2FD0026825
:100E400001EB82029268602A29D0026801EB8202DB
:100E50009268302A23D0026801EB82029268A02AAD
:100E60001DD0026801EB82029268702A17D00268D6
:100E700001EB82029268712A11D0026801EB8202B2
:100E80009268722A0BD0026801EB82029268802A73
:100E900005D0006801EB8000806822280ED1012077
:100EA0005C490860524C8021200000F0DEF90028E7
:100EB000F8D00421200000F098F926E0564D0120DA
:100EC00028604B4C8021200000F0CFF90028F8D09A
:100ED000296889B2200000F088F900F078F800F065
:100EE00015F812E04C4D02202860414C8021200072
:100EF00000F0BBF90028F8D0296889B2200000F082
:100F000074F900F064F800F001F831BD00203C49AC
:100F1000086000203B490860002037490860002035
:100F20003A49086000203A490860002036490860C4
:100F3000704710B51020FFF77DF980212C4800F094
:100F400094F90028F9D000242000C0B280280BDAE0
:100F50002A482B49096851FA84F100EB8100806E20
:100F6000FFF768F9641CEFE710BD10B52020FFF70C
:100F700061F900242000C0B280280BDA1F48204904
:100F8000096851FA84F100EB8100806EFFF752F995
:100F9000641CEFE710BD70B52220FFF74BF9184C29
:100FA000164D206805EB80004069FFF743F90026E5
:100FB0003000C0B2802809DA206850FA86F005EBCC
:100FC0008000C069FFF736F9761CF1E770BD134861
:100FD000002101600168B1F5167F08D20021074A9F
:100FE000036842F823100168491C0160F2E770476A
:100FF00000100140000002408C0900201400002075
:1010000084090020880900207C0900207409002040
:10101000780900209009002010000020800900209D
:1010200080B5FF20FFF706F90020FFF703F901BDA7
:1010300080B55520FFF7FEF8AA20FFF7FBF801BDA9
:1010400023490143234A11607047F0B40022002372
:101050000F24C178002920D01E49096811F4E061ED
:10106000D1F5E061090AD1F104052B00E4B20C418D
:1010700045789D408678264035432D012A00164D3F
:101080000678AA550125067816F01F06B540134EBE
:1010900007787F1146F8275009E00121057815F0FF
:1010A0001F05A9400E4D0678761145F82610F0BCB4
:1010B0007047042805D10B490A6852F004020A60FF
:1010C00004E008490A6832F004020A607047000030
:1010D0000000FA050CED00E000E400E000E100E0B3
:1010E00080E100E010E000E02DE9F04F85B0040061
:1010F0000D00002600275FF000085FF00009A889B6
:101100000028218A31F44051E88801430091009879
:101110002082B4F80CA02C4810EA0A0AA988288971
:1011200001436889014351EA0A0AA4F80CA0B4F803
:1011300014B03BF4407BA88950EA0B0BA4F814B020
:1011400001A8FFF78FFB1E48844202D01D4884424D
:1011500001D1049900E00399A089000407D5192062
:1011600000FB01F02A685200B0FBF2F206E0192001
:1011700000FB01F02A689200B0FBF2F26420B2FB9F
:10118000F0F6360133001B09642000FB1323A0890D
:10119000000408D5D80032306427B0FBF7F010F017
:1011A0000700064307E0180132306427B0FBF7F070
:1011B00010F00F000643268105B0BDE8F08F000057
:1011C0000010014000140140F3E9FFFF0A00D2B211
:1011D000002A04D0828952F40052828104E083897B
:1011E0004DF6FF72134083817047CA05D20D82808D
:1011F00070478088C005C00D70472DE9F04100237D
:10120000002500275FF0000E0C0040F66A16A4B21D
:10121000B44280460C00E4B26409E4B20E00B6B2F7
:1012200016F01F065FF0010C1CFA06FC012C02D11F
:1012300018F10C0806E0022C02D118F1100801E0A8
:1012400018F114081300DBB2002B06D0D8F80030D8
:101250005CEA0303C8F8003005E0D8F8003033EA50
:101260000C03C8F80030BDE8F0810200002308003C
:1012700080B2B0F5007F1088084201D0012000E064
:101280000020C0B270470A0092B292050A0092B2E2
:10129000D24302807047F0B40400002700200022EF
:1012A00000260B0040F66A159BB2AB420D00EDB272
:1012B0006D09EDB20B009BB213F01F035FF0010C40
:1012C0001CFA03F3012D02D1A089034006E0022D90
:1012D00002D1208A034001E0A08A03400A0092B2B2
:1012E000120A92B21CFA02F220880240002B03D0AC
:1012F000002A01D0012000E00020C0B2F0BC7047FD
:1013000070B4002200240B0040F66A159BB2AB4279
:101310000B009BB21B0A01259D402E00B6B2F6437E
:10132000068070BC70477047FEE7FEE7FEE7FEE709
:10133000704770477047704780B53949086850F06A
:10134000010008600020374A10600A6836480240F1
:101350000A603648364A1060086830F48020086019
:1013600000203449086000F005F85FF00060324961
:10137000086001BD82B00020019000200090284943
:10138000086850F480300860086810F4003000905D
:101390000198401C01900098002803D10198B0F5F5
:1013A000A04FF1D10868800302D50120009001E030
:1013B00000200090009801282FD12048026852F0A8
:1013C000805202601E48026852F440420260154892
:1013D00002680260026852F400420260026852F43D
:1013E000A0520260174A124B1A600A6852F08072CB
:1013F0000A600A689201FCD540F20571124A116038
:101400000168890889000160016851F002010160EA
:10141000016811F00C010829FAD102B070470000F0
:101420000038024008380240FFFFF6FE103000246A
:10143000043802400C38024008ED00E04038024019
:101440000070004008544007003C024010B54FF4C3
:10145000A060FFF7F5FDA820FFF758FB5FF4E1302F
:10146000FFF7D2FB00F024F8FFF7B1FDFEF78CFE8A
:101470000B4C2068012811D14FF400610948FFF797
:1014800002FB002807D1FFF703F9002020600120AC
:101490000549086002E0012004490860E8E700BF50
:1014A00090090020000C024094090020980241425B
:1014B0001CB501212020FFF756FA4FF4C0600090C0
:1014C00001208DF8040000208DF8060003208DF81F
:1014D000050001208DF80700054C69462000FFF744
:1014E0006DFA4FF4C0612000FFF7DBFA13BD00BFB7
:1014F0000014024030B450F8041B79B1026843680C
:1015000002440830DC0744BFA9F10104E31852F893
:10151000045B43F8045B091FF9D1ECE730BC70476A
:1015200010B5074979441831064C7C44163404E060
:101530000A68081D114488470146A142F8D110BD30
:10154000080000002800000087F6FFFF880900005F
:1015500014000020000000009DFFFFFF14000000A9
:10156000B4010000000000200000000000F00DF8B1
:10157000002801D0FFF7D4FFAFF300800020AFF3C5
:101580000080FFF763FF00F002F80120704700F0D1
:1015900001B800000746384600F002F8FBE70000FB
:1015A00080B5AFF30080024A11001820ABBEFBE704
:1015B000260002000148804701480047391300080F
:1015C000C5150008AFF30080AFF30080FFF7CEFF32
:1015D000FFF7FEBFFFF7FEBFFFF7FEBFFFF7FEBF3F
:1015E000FFF7FEBFFFF7FEBFFFF7FEBFFFF7FEBF2F
:1015F000FFF7FEBFFFF7FEBFFFF7FEBFFFF7FEBF1F
:10160000FFF7FEBFFFF7FEBFFFF7FEBFFFF7FEBF0E
:10161000FFF7FEBFFFF7FEBFFFF7FEBFFFF7FEBFFE
:10162000FFF7FEBFFFF7FEBFFFF7FEBFFFF7FEBFEE
:10163000FFF7FEBFFFF7FEBFFFF7FEBFFFF7FEBFDE
:10164000FFF7FEBFFFF7FEBFFFF7FEBFFFF7FEBFCE
:10165000FFF7FEBFFFF7FEBFFFF7FEBFFFF7FEBFBE
:10166000FFF7FEBFFFF7FEBFFFF7FEBFFFF7FEBFAE
:10167000FFF7FEBFFFF7FEBFFFF7FEBFFFF7FEBF9E
:10168000FFF7FEBFFFF7FEBFFFF7FEBFFFF7FEBF8E
:10169000FFF7FEBFFFF7FEBFFFF7FEBFFFF7FEBF7E
:1016A000FFF7FEBFFFF7FEBFFFF7FEBFFFF7FEBF6E
:1016B000FFF7FEBFFFF7FEBFFFF7FEBFFFF7FEBF5E
:1016C000FFF7FEBFFFF7FEBFFFF7FEBFFFF7FEBF4E
:1016D000FFF7FEBFFFF7FEBFFFF7FEBFFFF7FEBF3E
:1016E000FFF7FEBFFFF7FEBFFFF7FEBFFFF7FEBF2E
:1016F000FFF7FEBFFFF7FEBFFFF7FEBFFFF7FEBF1E
:10170000FFF7FEBFFFF7FEBFFFF7FEBFFFF7FEBF0D
:10171000FFF7FEBF00000000010203040102030402
:08172000060708095100000052
:04000005080015C515
:00000001FF
